:10000000AD0002CDB2AAF0034CA49FAD0102C98D90
:10001000D006205BA74C959F4CC4A60E5FAAAC5F90
:10002000AA205EA6900CA9023909A9F005A90F4CD7
:10003000D2A6C006D0028433A9203909A9F06120D4
:1000400095A00820A4A1F01E0A900530034C00A042
:100050006A4C59A02093A1F00D9975AAC8C03C9094
:10006000F32093A1D0FB28D00FAC5FAAA9103909C7
:10007000A9F00CA01E08D0CBAD93AAC9A0F013AD77
:1000800075AAC9A0D04BAC5FAAA9C03909A9F002D2
:10009000103F4C00A0A03CA9A09974AA88D0FA6097
:1000A0008D75AAA90C3909A9F02720B9A1B01FA8FC
:1000B000D017E011B013AC5FAAA9083909A9F0065E
:1000C000E008B0CE900B8AD008A9024CD2A64CC44E
:1000D000A6A9008D65AA8D74AA8D66AA8D6CAA8DBD
:1000E0006DAA20DCBFAD5DAA20A4A1D01FC98DD010
:1000F000F7AE5FAAAD65AA1D0AA95D0AA9D093AEA5
:1001000063AAF0768D63AA8E5DAAD0DCA20ADD40D8
:10011000A9F005CAD0F8F0B6BD4AA930470D65AAC6
:100120008D65AACA8E64AA20B9A1B0A2AD64AA0A3C
:100130000AA8A545D009A544D955A9908CA545D9AB
:1001400058A9900BD083A544D957A99002D0F5ADFA
:1001500063AAD094984AA8A5459967AAA544996628
:10016000AA4CE8A048A9800D65AA8D65AA68297FD8
:100170000D74AA8D74AAD0E9F09C2080A14C839FB5
:10018000205BA720AEA1AD5FAAAABD1F9D48BD1EE2
:100190009D4860AE5DAABD0002C98DF006E88E5D87
:1001A000AAC9AC602093A1F0FAC9A0F0F760A90039
:1001B000A01699BAB588D0FA60A900854485452073
:1001C000A4A108C9A4F03C284CCEA120A4A1D0062B
:1001D000A644A545186038E9B03021C90AB01D20F1
:1001E000FEA16544AAA9006545A820FEA120FEA1A4
:1001F0008A65448544986545854590CF38600644B6
:100200002645602820A4A1F0C538E9B030EEC90A1F
:100210009008E90730E6C910B0E2A20420FEA1CAA6
:10022000D0FA054485444C04A2A5444C95FEA5444F
:100230004C8BFEAD5EAA0D74AA8D5EAA602C74AACA
:10024000500320C89FA9704D74AA2D5EAA8D5EAA86
:1002500060A9008DB3AAA544482016A3688D57AAAB
:100260004CD4A7A90520AAA22064A7A00098914079
:1002700060A907D002A90820AAA24CEAA2A90CD022
:10028000F6AD089D8DBDB5AD099D8DBEB5A9098D95
:1002900063AA20C8A24CEAA220A3A2208CA6D0FB6D
:1002A0004C71B6A9004CD5A3A9018D63AAAD6CAA67
:1002B000D00AAD6DAAD005A9018D6CAAAD6CAA8D2E
:1002C000BDB5AD6DAA8DBEB520EAA2A545D0034C43
:1002D000C8A68541A54485402043A7204EA7201AE3
:1002E000A7AD63AA8DBBB54CA8A6AD75AAC9A0F0F1
:1002F000252064A7B03A20FCA24CEAA220AFA7D0E8
:1003000005A9008DB3AAA000989140204EA7A9028C
:100310008DBBB54CA8A62092A7D005209AA7F010B7
:1003200020AFA7F0F620AAA7F0F120FCA24C16A35C
:1003300060A9092D65AAC909F0034C00A0A90420F1
:10034000D5A3AD73AAAC72AA20E0A3AD6DAAAC6C24
:10035000AA20E0A3AD73AAAC72AA4CFFA320A8A266
:10036000A97F2DC2B5C904F0034CD0A6A90420D59D
:10037000A3207AA4AAAD65AA2901D0068E72AA8C00
:1003800073AA207AA4AE72AAAC73AA4C71A4205DA1
:10039000A32051A86C72AAADB6AAF020A5D610036E
:1003A0004CCCA6A90220D5A338A5AFE567A8A5B077
:1003B000E56820E0A3A568A4674CFFA3A90120D5A8
:1003C000A338A54CE5CAA8A54DE5CB20E0A3A5CB55
:1003D000A4CA4CFFA38DC2B54820A8A2684CC4A7EC
:1003E0008CC1B58CC3B58DC2B5A9048DBBB5A901AF
:1003F0008DBCB520A8A6ADC2B58DC3B54CA8A68C42
:10040000C3B58DC4B5A9024C86B620A8A64CEAA2F5
:100410004CD0A62016A320A8A2A9232DC2B5F0F087
:100420008DC2B5ADB6AAF028A90220B1A4207AA445
:10043000186567AA986568C574B07085B0856A86C6
:10044000AF8669A667A4682071A42051A86C609D3E
:10045000A90120B1A4207AA438A54CED60AAAAA5D0
:100460004DED61AA9045A8C44B9040F03E84CB86E8
:10047000CA8EC3B58CC4B54C0AA4AD0A9D8DC3B554
:10048000AD0B9D8DC4B5A9008DC2B5A9028DC1B5B6
:10049000A9038DBBB5A9028DBCB520A8A6AD61AAE4
:1004A0008DC2B5A8AD60AA8DC1B56020EAA24CCCC2
:1004B000A6CDC2B5F01AAE5FAA8E62AA4AF0034C6E
:1004C0009EA5A21DBD75AA9D93AACA10F74C7AA538
:1004D00060ADB6AAF0038DB7AA2013A420C89F2050
:1004E00051A86C589DA54A85CCA54B85CD6C569DD1
:1004F0002016A420C89F2051A86C569D2065D68543
:100500003385D84CD2D720650E853385D84CD40F8F
:100510002026A5A9058D52AA4C839F2026A5A901B6
:100520008D51AA4C839F2064A7900620A3A24C342F
:10053000A5204EA7AD65AA2906F013A203BD6EAA99
:100540009DBDB5CA10F7A90A8DBBB520A8A660A9A4
:10055000402D65AAF005AD66AAD005A9FE8D66AA54
:10056000AD0D9D8DBCB5A90B20AAA24C97A3A906E1
:1005700020AAA2ADBFB58D66AA60A94C20B2A5F095
:100580002EA9008DB6AAA01E2097A0A209BDB7AAC9
:100590009D74AACAD0F7A9C08D51AA4CD1A4A92094
:1005A00020B2A5F005A9014CD2A6A9008DB7AA4C8E
:1005B000849DCD00E0F00E8D80C0CD00E0F0068D72
:1005C00081C0CD00E06020A3A2AD4FAA8DB4AAAD3A
:1005D00050AA8DB5AAAD75AA8DB3AAD00E2064A776
:1005E000900620A3A24CEBA5204EA7AD65AA290436
:1005F000F01BAD6EAAD008AE6FAAF011CE6FAACED6
:100600006EAA208CA6F038C98DD0F7F0E560205E88
:10061000A6B066AD5CAA8DC3B5A9048DBBB5A90112
:100620008DBCB54CA8A6205EA6B04EA9068D52AAD8
:10063000208CA6D00F20FCA2A903CD52AAF0CEA9EF
:10064000054CD2A6C9E09002297F8D5CAAAE5AAAB9
:10065000F009CABD000209809D00024CB39F48AD5D
:10066000B6AAF00EA676E8F00DA633E0DDF0076836
:100670001860A5D930F968386020FCA2205BA74C2F
:10068000B39F209DA6204EA7A903D0A1A9038DBB8F
:10069000B5A9018DBCB520A8A6ADC3B560ADB5AAFE
:1006A0008541ADB4AA8540602006AB9016ADC5B5B6
:1006B000C905F0034C5EB64C92B6EA2069BAA200B6
:1006C0008EC3B560A90BD00AA90CD006A90ED00222
:1006D000A90D8D5CAA20E6BFADB6AAF004A5D8305E
:1006E0000EA2002002A7AE5CAA2002A720C89F206D
:1006F00051A8205EA6AE5CAAA903B0036C5A9D6CFB
:100700005E9DBD3FAAAA8E63AABD71A9480980203B
:10071000C59FAE63AAE86810ED60AD66AA8DBFB54F
:10072000AD68AA8DC0B5AD6AAA8DC1B5AD069D8D67
:10073000C3B5AD079D8DC4B5A5408D4FAAA5418D0C
:1007400050AA60A01DB975AA91408810F860A01E3B
:10075000B14099A9B5C8C026D0F660A0008C51AAB6
:100760008C52AA60A90085452092A74C73A7209AB5
:10077000A7F01D20AAA7D00AA5408544A54185451C
:10078000D0ECA01DB140D975AAD0E38810F618604E
:100790003860AD009DAE019DD00AA025B140F009A2
:1007A000AA88B140864185408A60A000B14060AD12
:1007B000B3AAF00EADB4AAC540D008ADB5AAC541E4
:1007C000F001CA604DC2B5F00A297FF00620EAA206
:1007D0004CD0A66038AD009D8540AD019D8541ADF2
:1007E00057AA8D63AAA000989140A01E38A540E9A1
:1007F0002D914048A541E900C89140AACA6848C85F
:00000001FF
