:1000000091408AC89140AACA6848C89140C88A915C
:1000100040CE63AAF017AA6838E926C89140488AFA
:10002000E900C8914085416885404CE5A748A90092
:10003000C89140C89140ADB6AAF00B688574857030
:10004000688573856F6068854D85CB68854C85CAEA
:1000500060A539CD039DF0128D56AAA5388D55AAFD
:10006000AD029D8538AD039D8539A537CD059DF041
:10007000128D54AAA5368D53AAAD049D8536AD05C3
:100080009D853760494E49D44C4F41C4534156C5B4
:100090005255CE43484149CE44454C4554C54C4F3A
:1000A00043CB554E4C4F43CB434C4F53C552454128
:1000B000C4455845C357524954C5504F53495449F4
:1000C0004FCE4F5045CE415050454EC452454E4103
:1000D0004DC5434154414C4FC74D4FCE4E4F4D4FF0
:1000E000CE5052A3494EA34D415846494C45D346A4
:1000F000D0494ED442534156C5424C4F41C442525E
:1001000055CE5645524946D9002170A070A170A025
:1001100070207020702070207060002206207422F1
:10012000062204237822703070407040804080089E
:1001300000080004004070400021792071207120E7
:1001400070D6C4D3CCD2C2C1C3C9CF4020100804DA
:100150000201C0A0900000FE0001000200010007A3
:10016000000100FF7F0000FF7F0000FF7F0000FF15
:10017000FF0D078D4C414E4755414745204E4F548A
:1001800020415641494C41424CC552414E474520C1
:100190004552524FD257524954452050524F544520
:1001A000435445C4454E44204F4620444154C14623
:1001B000494C45204E4F5420464F554EC4564F4C47
:1001C000554D45204D49534D415443C8492F4F206B
:1001D0004552524FD24449534B2046554CCC464988
:1001E0004C45204C4F434B45C453594E5441582025
:1001F0004552524FD24E4F2042554646455253200B
:10020000415641494C41424CC546494C4520545900
:100210005045204D49534D415443C850524F4752C9
:10022000414D20544F4F204C415247C54E4F542012
:1002300044495245435420434F4D4D414EC48D00D7
:1002400003191924333E4C5B646D788498AABB2D46
:10025000980000F0FD1BFD0303F40A288D0A00003E
:100260004404000B0000FE00010006000100000035
:100270000000001000C8C5CCCCCFA0A0A0A0A0A0BA
:10028000A0A0A0A0A0A0A0A0A0A0A0A0A0A0A0A06E
:10029000A0A0A0A0A0A0A0A0A0A0A0A0A0A0A0A05E
:1002A000A0A0A0A0A0A0A0A0A0A0A0A0A0A0A0A04E
:1002B000A003840000004000C1D0D0CCC5D3CFC67D
:1002C000D4E8B7BBB3BBB400C07EB321AB05AC5719
:1002D000AC6FAC2AAD97ADEEACF5AC39AC11AD8DD1
:1002E000AE17AD7EB37EB389AC95AC86AC92AC7ED6
:1002F000B37EB3BDACC9ACBAACC6AC7EB3E000F063
:1003000002A2028E5FAABA8E9BB3206AAEADBBB5C5
:10031000C90DB00B0AAABDCAAA48BDC9AA48604CFB
:1003200063B32028AB4C7FB320DCABA9018DE3B5D0
:10033000AEBEB5ADBDB5D005E000D001E88DE8B5E5
:100340008EE9B520C9B1905E8E9CB3AE5FAABD099F
:10035000A9AE9CB34AB00DAD51AAC9C0D0034C5F41
:10036000B34C73B3A9009DE8B4A9019DE7B48E9C7A
:10037000B32044B2AE9CB39DC7B48DD2B58DD4B575
:10038000ADF1B59DC6B48DD1B58DD3B5ADC2B59D1A
:10039000C8B42037B0200CAF20D6B7203AAFAE9CFF
:1003A000B3A9068DC5B5BDC6B48DD1B5BDC7B48DD5
:1003B000D2B5BDC8B48DC2B58DF6B5BDE7B48DEE6E
:1003C000B5BDE8B48DEFB58ED9B5A9FF8DE0B58D7B
:1003D000E1B5ADE2B38DDAB5184C5EAFA900AA9DC8
:1003E000D1B5E8E02DD0F8ADBFB549FF8DF9B5AD79
:1003F000C0B58DF8B5ADC1B50A0A0A0AAA8EF7B51F
:10040000A9118DFAB560201DAF2034AF20C3B2A969
:10041000022DD5B5F02120F7AFA900182011B03872
:10042000CED8B5D0F7AED9B5ADEEB59DE7B4ADEF4A
:10043000B59DE8B42037B04C7FB32028ABADF6B5FE
:10044000302BADBDB58542ADBEB58543AE9CB32066
:100450001CB22037B04C7FB3ADBCB5C905B00B0A98
:10046000AABDE6AA48BDE5AA48604C67B34C7BB379
:10047000ADF6B530F8ADBCB5C905B0EE0AAABDF20F
:10048000AA48BDF1AA48602000B320A8AC8DC3B52E
:100490004C7FB32000B320B5B120A8AC4820A2B156
:1004A000A0006891424C96AC20B6B0B00BB1424867
:1004B000205BB12094B168604C6FB32000B3ADC332
:1004C000B520DAAC4C7FB32000B320A2B1A000B1BC
:1004D0004220DAAC20B5B14CCAAC4820B6B0689125
:1004E00042A9400DD5B58DD5B5205BB14C94B1A9CD
:1004F000808D9EB3D005A9008D9EB32028ABAE9C05
:10050000B3BDC8B4297F0D9EB39DC8B42037B04C8D
:100510007FB32000B34C7FB32028AB20B6B0B0EF40
:10052000EEE4B5D0F6EEE5B54C1BAD2028ABAE9CA5
:10053000B3BDC8B410034C7BB3AE9CB3BDC6B48D81
:10054000D1B59DE6B4A9FF9DC6B4BCC7B48CD2B5E5
:100550002037B018205EAFB02A200CAFA00C8C9CC6
:10056000B3B142300BF00948C8B142A8682089AD48
:10057000AC9CB3C8C8D0E7ADD3B5ACD4B52089AD79
:1005800038B0D120FBAF4C7FB33820DDB2A900A238
:10059000059DF0B5CA10FA6020DCABA9FF8DF9B556
:1005A00020F7AFA9168D9DB3202FAE202FAEA20B42
:1005B000BDAFB320EDFDCA10F78645ADF6B7854453
:1005C0002042AE202FAE202FAE182011B0B05DA279
:1005D000008E9CB3BDC6B4F053304AA0A0BDC8B4D1
:1005E0001002A0AA9820EDFDBDC8B4297FA0070A7B
:1005F0000AB00388D0FAB9A7B320EDFDA9A020ED79
:10060000FDBDE7B48544BDE8B485452042AEA9A050
:1006100020EDFDE8E8E8A01DBDC6B420EDFDE888AA
:1006200010F6202FAE2030B290A7B09E4C7FB3A919
:100630008D20EDFDCE9DB3D008200CFDA9158D9D1C
:10064000B360A002A90048A544D9A4B39012F9A4AC
:10065000B38544A545E9008545686900484C47AE27
:100660006809B020EDFD8810DB602008AFA0008C89
:10067000C5B5B14299D1B5C8C02DD0F618602008D3
:10068000AFA000B9D1B59142C8C02DD0F66020DC32
:10069000ABA9042058B0ADF9B549FF8DC1B3A9117C
:1006A0008DEBB3A9018DECB3A238A9009DBBB3E8D3
:1006B000D0FAA20CE08CF014A003B9A0B39DF3B360
:1006C000E88810F6E044D0ECA248D0E820FBAFA2C6
:1006D000008A9DBBB4E8D0FA2045B0A911ACF0B3B4
:1006E00088888DECB78DBCB48CBDB4C88CEDB7A92F
:1006F000022058B0ACBDB4883005D0EC98F0E620AC
:10070000C2B7204AB74C7FB3A200F006A202D002C3
:10071000A204BDC7B58542BDC8B58543602CD5B51B
:1007200070016020E4AFA9022052B0A9BF2DD5B559
:100730008DD5B560ADD5B5300160204BAFA9022095
:1007400052B0A97F2DD5B58DD5B560ADC9B58DF0A9
:10075000B7ADCAB58DF1B7AED3B5ACD4B56008208E
:1007600034AF204BAF200CAF28B009AED1B5ACD21E
:10077000B54CB5AFA001B142F008AAC8B142A84C2F
:10078000B5AFADBBB5C904F00238602044B2A002D9
:1007900091424888ADF1B5914248203AAF20D6B792
:1007A000A005ADDEB59142C8ADDFB5914268AA683B
:1007B000A8A902D002A9018ED3B58CD4B52052B01D
:1007C000A005B1428DDCB5186DDAB58DDEB5C8B1C6
:1007D000428DDDB56DDBB58DDFB5186020E4AFA9C6
:1007E000014C52B0ACCBB5ADCCB58CF0B78DF1B7F8
:1007F000AED6B5ACD7B560A901D002A902ACC3AAE8
:00000001FF
