:100000008CF0B7ACC4AA8CF1B7AEFAB5A0004C52D4
:10001000B0082045B028B008ACBDB3AEBCB3D00A20
:10002000AEBCB4D0023860ACBDB48E97B38C98B37C
:10003000A9012052B018602045B0AE97B3AC98B378
:10004000A9024C52B0ADC5AA8DF0B7ADC6AA8DF1CC
:10005000B7608EECB78CEDB78DF4B7C902D0060D42
:10006000D5B58DD5B5ADF9B549FF8DEBB7ADF7B5C4
:100070008DE9B7ADF8B58DEAB7ADE2B58DF2B7ADA4
:10008000E3B58DF3B7A9018DE8B7ACC1AAADC2AA9B
:1000900020B5B7ADF6B78DBFB5A9FF8DEBB7B001F1
:1000A00060ADF5B7A007C920F008A004C910F002A0
:1000B000A008984C85B3ADE4B5CDE0B5D008ADE56A
:1000C000B5CDE1B5F066201DAFADE5B5CDDDB590A0
:1000D0001CD008ADE4B5CDDCB59012ADE5B5CDDFF3
:1000E000B59010D008ADE4B5CDDEB59006205EAF7A
:1000F00090D76038ADE4B5EDDCB50A690CA8200CEA
:10010000AFB142D00FADBBB5C904F00238602034A6
:10011000B14C20B18DD6B5C8B1428DD7B520DCAF7A
:10012000ADE4B58DE0B5ADE5B58DE1B52010AFAC72
:10013000E6B518608C9DB32044B2AC9DB3C8914223
:100140008DD7B588ADF1B591428DD6B52010AF20D1
:10015000D6B7A9C00DD5B58DD5B560AEEAB58EBD03
:10016000B5AEEBB58EBEB5AEECB5ACEDB58EBFB5EC
:100170008CC0B5E8D001C8CCE9B5D011ECE8B5D059
:100180000CA200A000EEEAB5D003EEEBB58EECB504
:100190008CEDB560EEE6B5D008EEE4B5D003EEE543
:1001A000B560ACC3B5AEC4B584428643EEC3B5D02A
:1001B00003EEC4B560ACC1B5D008AEC2B5F007CE91
:1001C000C2B5CEC1B5604C7FB320F7AFADC3B58526
:1001D00042ADC4B58543A9018D9DB3A9008DD8B5A5
:1001E00018EED8B52011B0B051A2008E9CB3BDC698
:1001F000B4F01F3022A000E8E8E8B142DDC6B4D078
:100200000AC8C01ED0F3AE9CB318602030B290DB99
:10021000B0CFAC9DB3D0C1AC9DB3D0EFA000E8E8A7
:10022000E8B1429DC6B4C8C01ED0F5AE9CB33860DC
:1002300018AD9CB36923AAE0F560A900AC9DB3D0CA
:10024000974C77B3ADF1B5F021CEF0B5301718A2C9
:10025000043EF1B5CAD0FA90F0EEEEB5D003EEEF61
:10026000B5ADF0B560A9008DF1B5A9008D9EB320A4
:10027000F7AF18ADEBB36DECB3F009CDEFB390145D
:10028000A9FFD00AAD9EB3D037A9018D9EB38DECE6
:10029000B31869118DEBB38DF1B5A80A0AA8A204B1
:1002A00018B9F6B39DF1B5F00638A90099F6B388F0
:1002B000CAD0EE90BD20FBAFADF0B38DF0B5D089C4
:1002C0004C77B3ADF1B5D001604820F7AFACF0B5D5
:1002D000681820DDB2A9008DF1B54CFBAFA2FC7E01
:1002E000F6B4E8D0FAC8CCF0B3D0F20A0AA8F00FFE
:1002F000A204BDF1B519F6B399F6B388CAD0F3607C
:10030000ADBDB58DE6B58DEAB5ADBEB58DE4B58DA7
:10031000EBB5A9008DE5B5A010AAADE6B54AB003CE
:100320008A900E18ADE5B56DE8B58DE5B58A6DE935
:10033000B56A6EE5B56EE4B56EE6B588D0DB18AD8E
:10034000BFB58DECB56DE6B58DE6B5ADC0B58DED3F
:10035000B56DE4B58DE4B59003EEE5B5600000A998
:1003600001D022A902D01EA903D01AA904D016A92F
:1003700005D012A906D00E4CEDBFEAA90AD006ADF1
:10038000C5B518900138088DC5B5A9008548207EEF
:10039000AE28AE9BB39A60110F0000EE460100003C
:1003A0000000FFFF010A64D4C9C1C2D3D2C1C2A0F8
:1003B000C5CDD5CCCFD6A0CBD3C9C404110F030073
:1003C00000FE00000000000000000000000000002F
:1003D000000000000000000000000000000000001D
:1003E00000007A000000000000000011010000235E
:1003F000100001000000000000000000000000FFED
:10040000FF0000FFFF0000FFFF0000FFFF0000FFF4
:10041000FF0000FFFF0000FFFF0000FFFF0000FFE4
:10042000FF0000FFFF0000FFFF0000FFFF0000FFD4
:10043000FF0000FFFF000000000000FFFF0000FFC2
:10044000FF0000FFFF0000FFFF0000FFFF0000FFB4
:10045000FF0000FFFF0000FFFF0000FFFF0000FFA4
:10046000FF0000FFFF0000FFFF0000FFFF0000FF94
:10047000FF0000FFFF0000FFFF0000FFFF00000083
:10048000000000000000000000000000000000006C
:10049000000000000000000000000000000000005C
:1004A000000000000000000000000000000000004C
:1004B000000000000000000000000000000000003C
:1004C000000000000000000000000000000000002C
:1004D000000000000000000000000000000000001C
:1004E000000000000000000000000000000000000C
:1004F00000000000000000000000000000000000FC
:1005000000000000000000000000000000000000EB
:1005100000000000000000000000000000000000DB
:1005200000000000000000000000000000000000CB
:1005300000000000000000000000000000000000BB
:1005400000000000000000000000000000000000AB
:10055000000000000000000000000000000000009B
:10056000000000000000000000000000000000008B
:10057000000000000000000000000000000000007B
:10058000000000000000000000000000000000006B
:10059000000000000000000000000000000000005B
:1005A000000000000000000000000000000000004B
:1005B00000000000000000000000000B9D0100FE94
:1005C00001060075AA000000980097009600000040
:1005D0000000000000020000000000000000000019
:1005E000000000000000000000000000000000000B
:1005F0000000000000000060010111000000FDFE8D
:1006000001A527C909D018A52B4A4A4A4A09C0851D
:100610003FA95C853E18ADFE086DFF088DFE08AE53
:10062000FF083015BD4D08853DCEFF08ADFE08859D
:1006300027CEFE08A62B6C3E00EEFE08EEFE08203C
:1006400089FE2093FE202FFBA62B6CFD08000D0BCE
:1006500009070503010E0C0A080604020F002064B6
:10066000A7B008A900A88D5DB69140ADC5B54CD224
:10067000A6AD5DB6F008EEBDB5D003EEBEB5A900DF
:100680008D5DB64C84BA8DBCB520A8A620EAA24CDC
:100690007DA2A013B142D014C8C017D0F7A019B1E1
:1006A0004299A4B5C8C01DD0F64CBBA6A2FF8E5D72
:1006B000B6D0F600000000000000000000000000BE
:1006C000000000000000000000000000000000002A
:1006D000000000000000000000000000000000001A
:1006E000000000000000000000000000000000000A
:1006F0000000000000000000000000000000B6093B
:100700008EE9B78EF7B7A9018DF8B78DEAB7ADE0DE
:10071000B78DE1B7A9028DECB7A9048DEDB7ACE7B1
:10072000B7888CF1B7A9018DF4B78A4A4A4A4AAA18
:10073000A9009DF8049D78042093B7A2FF9A8EEB40
:10074000B74CC8BF2089FE4C849DADE7B738EDF1AA
:10075000B78DE1B7ADE7B78DF1B7CEF1B7A9028D8F
:10076000ECB7A9048DEDB7A9028DF4B72093B7AD0E
:10077000E7B78DFEB61869098DF1B7A90A8DE1B703
:1007800038E9018DFFB68DEDB72093B7600000000A
:10079000000000ADE5B7ACE4B720B5B7ACEDB78865
:1007A0001007A00FEAEACEECB78CEDB7CEF1B7CECA
:1007B000E1B7D0DF6008782000BDB00328186028BA
:1007C0003860ADBCB58DF1B7A9008DF0B7ADF9B506
:1007D00049FF8DEBB760A900A89142C8D0FB60002B
:1007E0001B000A1BE8B700B6016001FE0009FBB759
:1007F000009A00000100FE600100000001EFD80037
:00000001FF
