:10000000A200A00288B13E4A3E00BC4A3E00BC9914
:1000100000BBE8E05690EDA20098D0E8A255BD00E4
:10002000BC293F9D00BCCA10F5603886278E780633
:10003000BD8DC0BD8EC0307CAD00BC8526A9FF9DA6
:100040008FC01D8CC04868EAA004486820B9B888F1
:10005000D0F8A9D520B8B8A9AA20B8B8A9AD20B8B9
:10006000B898A056D003B900BC59FFBBAABD29BAA5
:10007000A6279D8DC0BD8CC088D0EBA526EA59006F
:10008000BBAABD29BAAE78069D8DC0BD8CC0B90093
:10009000BBC8D0EAAABD29BAA62720BBB8A9DE20D2
:1000A000B8B8A9AA20B8B8A9EB20B8B8A9FF20B859
:1000B000B8BD8EC0BD8CC0601848689D8DC01D8CB9
:1000C000C060A000A256CA30FBB900BB5E00BC2ACB
:1000D0005E00BC2A913EC8C426D0EB60A02088F008
:1000E00061BD8CC010FB49D5D0F4EABD8CC010FBBB
:1000F000C9AAD0F2A056BD8CC010FBC9ADD0E7A9EB
:1001000000888426BC8CC010FB5900BAA426990034
:10011000BCD0EE8426BC8CC010FB5900BAA4269932
:1001200000BBC8D0EEBC8CC010FBD900BAD013BD48
:100130008CC010FBC9DED00AEABD8CC010FBC9AA76
:10014000F05C3860A0FC8426C8D004E626F0F3BD3D
:100150008CC010FBC9D5D0F0EABD8CC010FBC9AA79
:10016000D0F2A003BD8CC010FBC996D0E7A90085D2
:1001700027BD8CC010FB2A8526BD8CC010FB252610
:10018000992C0045278810E7A8D0B7BD8CC010FB7C
:10019000C9DED0AEEABD8CC010FBC9AAD0A41860DD
:1001A000862B852ACD7804F053A9008526AD7804E6
:1001B000852738E52AF033B00749FFEE780490052B
:1001C00069FECE7804C5269002A526C90CB001A808
:1001D0003820EEB9B911BA2000BAA5271820F1B914
:1001E000B91DBA2000BAE626D0C32000BA18AD78EF
:1001F0000429032A052BAABD80C0A62B600000009D
:10020000A211CAD0FDE646D002E64738E901D0F097
:100210006001302824201E1D1C1C1C1C1C702C2658
:10022000221F1E1D1C1C1C1C1C96979A9B9D9E9F8A
:10023000A6A7ABACADAEAFB2B3B4B5B6B7B9BABBA7
:10024000BCBDBEBFCBCDCECFD3D6D7D9DADBDCDDBC
:10025000DEDFE5E6E7E9EAEBECEDEEEFF2F3F4F5ED
:10026000F6F7F9FAFBFCFDFEFFAE5FAAE01CF00515
:10027000A2008E5DB660A9FF8DFB048D0CC08D0EB3
:10028000C04C2FFBADBDB58DE6B58DEAB5BA8E9BE2
:10029000B34C7FB300000001989902039C0405064B
:1002A000A0A1A2A3A4A50708A8A9AA090A0B0C0D3E
:1002B000B0B10E0F10111213B81415161718191A21
:1002C000C0C1C2C3C4C5C6C7C8C9CA1BCC1C1D1E79
:1002D000D0D1D21FD4D52021D822232425262728C7
:1002E000E0E1E2E3E4292A2BE82C2D2E2F303132F5
:1002F000F0F1333435363738F8393A3B3C3D3E3F40
:1003000000000000000000000000000000000000ED
:1003100000000000000000000000000000000000DD
:1003200000000000000000000000000000000000CD
:1003300000000000000000000000000000000000BD
:1003400000000000000000000000000000000000AD
:10035000000000000000000000000000000000009D
:10036000000000000000000000000000000000008D
:10037000000000000000000000000000000000007D
:10038000000000000000000000000000000000006D
:10039000000000000000000000000000000000005D
:1003A000000000000000000000000000000000004D
:1003B000000000000000000000000000000000003D
:1003C000000000000000000000000000000000002D
:1003D000000000000000000000000000000000001D
:1003E000000000000000000000000000000000000D
:1003F00000000000000000000000000000000000FD
:1004000000000000000000000000000000000000EC
:1004100000000000000000000000000000000000DC
:1004200000000000000000000000000000000000CC
:1004300000000000000000000000000000000000BC
:1004400000000000000000000000000000000000AC
:1004500000000000000038BD8DC0BD8EC0305EA918
:10046000FF9D8FC0DD8CC0486820C3BC20C3BC9DED
:100470008DC0DD8CC0EA88D0F0A9D520D5BCA9AA52
:1004800020D5BCA99620D5BCA54120C4BCA544203C
:10049000C4BCA53F20C4BCA5414544453F484A05CE
:1004A0003E9D8DC0BD8CC06809AA20D4BCA9DE20A9
:1004B000D5BCA9AA20D5BCA9EB20D5BC18BD8EC03F
:1004C000BD8CC060484A053E9D8DC0DD8CC068EA89
:1004D000EAEA09AAEAEA48689D8DC0DD8CC060009E
:1004E000000000000000000000000000000000000C
:1004F00000000000000000000000000000000000FC
:1005000084488549A0028CF806A0048CF804A00158
:10051000B148AAA00FD148F01B8A48B148AA684840
:100520009148BD8EC0A008BD8CC0DD8CC0D0F688BF
:10053000D0F868AABD8EC0BD8CC0A008BD8CC048D4
:100540006848688EF805DD8CC0D00388D0EE08BD01
:1005500089C0A006B148993600C8C00AD0F6A003E9
:10056000B13C8547A002B148A010D148F00691489F
:1005700028A000086A9005BD8AC0B003BD8BC06684
:10058000352808D00BA0072000BA88D0FAAEF805AD
:10059000A004B148205ABE28D011A447100DA012C3
:1005A00088D0FDE646D0F7E647D0F3A00CB148F07E
:1005B0005AC904F0586A08B0032000B8A0308C78FB
:1005C00005AEF8052044B99024CE780510F3AD7837
:1005D0000448A9602095BECEF806F028A9048DF83D
:1005E00004A900205ABE68205ABE4CBCBDA42ECC23
:1005F0007804F01CAD780448982095BE68CEF804C5
:10060000D0E5F0CA68A940284C48BEF0394CAFBECE
:10061000A003B14848A52FA00E914868F008C52F47
:10062000F004A920D0E1A005B148A8B9B8BFC52DF4
:10063000D09728901C20DCB808B08E28A20086260F
:1006400020C2B8AEF805182438A00D9148BD88C066
:1006500060202AB890F0A910B0EE48A001B13C6A21
:100660006890080A206BBE4E780460852A208EBEF2
:10067000B9780424353003B9F8048D7804A52A2408
:1006800035300599F80410039978044CA0B98A4ACA
:100690004A4A4AA86048A002B1486A6635208EBE20
:1006A000680A2435300599F804100399780460A08D
:1006B00003B1488541A9AA853EA056A90085449961
:1006C000FFBB88D0FA9900BB88D0FAA9502095BE0C
:1006D000A9288545A544205ABE200DBFA908B024ED
:1006E000A9308D780538CE7805F0192044B9B0F5D9
:1006F000A52DD0F120DCB8B0ECE644A544C9239088
:10070000D3189005A00D914838BD88C060A9008518
:100710003FA080D002A4452056BCB06B202AB8B0C0
:1007200066E63FA53FC91090ECA00F843FA9308D2D
:10073000780599A8BF8810FAA4452087BF2087BFF5
:100740002087BF4868EA88D0F12044B9B023A52D9E
:10075000F015A910C545A545E9018545C905B011A4
:1007600038602044B9B00520DCB8901CCE7805D0A4
:10077000F12044B9B00BA52DC90FD00520DCB890ED
:100780008CCE7805D0EB3860A42DB9A8BF30DDA998
:10079000FF99A8BFC63F10CAA544D00AA545C910F5
:1007A00090E5C645C6451860FFFFFFFFFFFFFFFF4E
:1007B000FFFFFFFFFFFFFFFF000D0B090705030110
:1007C0000E0C0A080604020F2093FEAD81C0AD8115
:1007D000C0A9008D00E02076BA4C44B78D63AA8D85
:1007E00070AA8D71AA60205BA78CB7AA60207EAE2C
:1007F000AE9BB39A2016A3BA8E9BB3A9094C85B3BE
:00000001FF
